<!DOCTYPE HTML PUBLIC "-//W3C//DTD HTML 4.01 Transitional//EN">
<HTML>
 <HEAD>
   <TITLE> [openssl-users] Response from server is lost on close
   </TITLE>
   <LINK REL="Index" HREF="https://mta.openssl.org/pipermail/openssl-users/2015-December/index.html" >
   <LINK REL="made" HREF="mailto:openssl-users%40openssl.org?Subject=Re%3A%20%5Bopenssl-users%5D%20Response%20from%20server%20is%20lost%20on%20close&In-Reply-To=%3CCAEmVhZWvYL9EJWEv6J%2BAZTeydWW4d-R0UDDaYkRd6DbT%2Bpj%2BNw%40mail.gmail.com%3E">
   <META NAME="robots" CONTENT="index,nofollow">
   <style type="text/css">
       pre {
           white-space: pre-wrap;       /* css-2.1, curent FF, Opera, Safari */
           }
   </style>
   <META http-equiv="Content-Type" content="text/html; charset=us-ascii">
   <LINK REL="Previous"  HREF="002401.html">
   <LINK REL="Next"  HREF="002503.html">
 </HEAD>
 <BODY BGCOLOR="#ffffff">
   <H1>[openssl-users] Response from server is lost on close</H1>
    <B>Anty Rao</B> 
    <A HREF="mailto:openssl-users%40openssl.org?Subject=Re%3A%20%5Bopenssl-users%5D%20Response%20from%20server%20is%20lost%20on%20close&In-Reply-To=%3CCAEmVhZWvYL9EJWEv6J%2BAZTeydWW4d-R0UDDaYkRd6DbT%2Bpj%2BNw%40mail.gmail.com%3E"
       TITLE="[openssl-users] Response from server is lost on close">ant.rao at gmail.com
       </A><BR>
    <I>Wed Dec  2 10:21:22 UTC 2015</I>
    <P><UL>
        <LI>Previous message: <A HREF="002401.html">[openssl-users] s_client -no_tls1 option
</A></li>
        <LI>Next message: <A HREF="002503.html">[openssl-users] Response from server is lost on close
</A></li>
         <LI> <B>Messages sorted by:</B> 
              <a href="date.html#2402">[ date ]</a>
              <a href="thread.html#2402">[ thread ]</a>
              <a href="subject.html#2402">[ subject ]</a>
              <a href="author.html#2402">[ author ]</a>
         </LI>
       </UL>
    <HR>  
<!--beginarticle-->
<PRE>&gt;<i>
</I>&gt;<i> Using non-blocking openssl , after detecting underlying TCP is broken, i
</I>&gt;<i> invoke SSL_read to attempting reading response. *sometimes* response from
</I>&gt;<i> server is lost, sometimes not. But tcpdump show that response is always
</I>&gt;<i> send back to me. what is special is that RST packages come next the
</I>&gt;<i> response. Can someone shed some light on me, Thanks.Here is the result of
</I>&gt;<i> tcpdump:
</I>&gt;<i>
</I>&gt;&gt;<i> 16:18:00.168274 IP 17.143.161.207.2195 &gt; xx.xxx.xx.xx.43361: Flags [P.], seq 4764:4801, ack 37462, win 432, option
</I>s [nop,nop,TS val 1248125705 ecr 2355901348], length 37
    0x0000:  4500 0059 c936 4000 3006 14ba 118f a1cf  <A HREF="../../../mailman/listinfo/openssl-users.html">E..Y.6 at .0.......</A>
    0x0010:  b73c 0214 0893 a961 1e10 133f 2197 3724  .&lt;.....a...?!.7$
    0x0020:  8018 01b0 245e 0000 0101 080a 4a64 e309  ....$^......Jd..
    0x0030:  8c6c 33a4 1503 0100 2012 a99f e30c 37aa  .l3...........7.
    0x0040:  eda1 e24a 1819 74cb 1a73 2396 f76e b9fa  ...J..t..s#..n..
    0x0050:  293b 8625 8a9d 09a7 30
);.%....016:18:00.168326 IP 17.143.161.207.2195 &gt; xx.xxx.xx.xx.43361:
Flags [R.], seq 4801, ack 37462, win 498, options [no
p,nop,TS val 1248125705 ecr 2355901348], length 0
    0x0000:  4500 0034 c937 4000 3006 14de 118f a1cf  <A HREF="../../../mailman/listinfo/openssl-users.html">E..4.7 at .0.......</A>
    0x0010:  b73c 0214 0893 a961 1e10 1364 2197 3724  .&lt;.....a...d!.7$
    0x0020:  8014 01f2 de75 0000 0101 080a 4a64 e309  .....u......Jd..
    0x0030:  8c6c 33a4                                .l3.




-- 
Anty Rao
-------------- next part --------------
An HTML attachment was scrubbed...
URL: &lt;<A HREF="http://mta.openssl.org/pipermail/openssl-users/attachments/20151202/2fe09b0e/attachment-0001.html">http://mta.openssl.org/pipermail/openssl-users/attachments/20151202/2fe09b0e/attachment-0001.html</A>&gt;
</PRE>


























<!--endarticle-->
    <HR>
    <P><UL>
        <!--threads-->
	<LI>Previous message: <A HREF="002401.html">[openssl-users] s_client -no_tls1 option
</A></li>
	<LI>Next message: <A HREF="002503.html">[openssl-users] Response from server is lost on close
</A></li>
         <LI> <B>Messages sorted by:</B> 
              <a href="date.html#2402">[ date ]</a>
              <a href="thread.html#2402">[ thread ]</a>
              <a href="subject.html#2402">[ subject ]</a>
              <a href="author.html#2402">[ author ]</a>
         </LI>
       </UL>

<hr>
<a href="../../../mailman/listinfo/openssl-users.html">More information about the openssl-users
mailing list</a><br>
</body></html>
